:020000040800F2
:1000000020050020010100087B12000837120008BB
:10001000791200081B0200088D140008000000007F
:100020000000000000000000000000007F12000837
:100030001D020008000000007D1200088112000867
:100040001B0100081B0100081B0100081B01000820
:100050001B0100081B0100081B0100081B01000810
:100060001B0100081B0100081B0100081B01000800
:100070001B0100081B0100081B0100081B010008F0
:100080001B0100081B0100081B0100081B010008E0
:10009000811400081B0100081B0100081B01000857
:1000A0001B0100081B0100081B0100081B010008C0
:1000B0001B0100081B0100081B0100081B010008B0
:1000C0001B0100081B0100081B0100081B010008A0
:1000D0001B0100081B0100081B0100081B01000890
:1000E0001B0100081B0100081B010008DFF80CD0F1
:1000F00000F072F800480047AD1900082005002004
:100100000648804706480047FEE7FEE7FEE7FEE7B1
:10011000FEE7FEE7FEE7FEE7FEE7FEE7E312000884
:10012000ED000008202A04DB203A21FA02F0002129
:10013000704721FA02F3D040C2F1200291400843F7
:1001400019467047D2B201E000F8012B491EFBD2DC
:1001500070470022F6E710B513460A4604461946D2
:10016000FFF7F0FF204610BD421C10F8011B0029CC
:10017000FBD1801A70472DE9F05F054600209246BA
:100180009B4688460646814640241BE02846414659
:1001900047462246FFF7C6FF53465A46C01A9141CA
:1001A00010D311461846224600F028F82D1A67EBA6
:1001B00001084F4622460120002100F01FF817EBEE
:1001C00000094E41201EA4F10104DFDC48463146FF
:1001D0002A464346BDE8F09F064C074D06E0E0681E
:1001E00040F0010394E8070098471034AC42F6D37E
:1001F000FFF780FFDC1B0008FC1B0008202A04DB43
:10020000203A00FA02F1002070479140C2F1200329
:1002100020FA03F3194390407047FEE7704790F8C7
:100220002020012A07D0022A05D0416A41F480210A
:10023000416201207047006842690A434261002020
:100240007047000010B590F820300268012B07D0ED
:10025000022B05D0416A41F480214162012010BD8A
:10026000D2F8000240F00100C2F80002087D00F060
:100270001F0301209840D2F81C328343C2F81C327D
:10028000CB69B3B9D2F80C328343C2F80C328C89F3
:100290004B6864F31F434C6902EBC404C4F840325A
:1002A0000C890B6864F31F434C6902EBC404C4F867
:1002B0004432CB69012B16D1D2F80C320343C2F879
:1002C0000C320C884B6864F31F434C6902EBC40486
:1002D000C4F840320C89CB6864F31F434C6902EBCD
:1002E000C404C4F844328B69002BD2F804320FD016
:1002F00053EA0003C2F804320B69002BD2F814321F
:1003000008D00343C2F81432096A012904D008E076
:100310008343EFE78343F5E7D2F81C120143C2F8A9
:100320001C12D2F8000220F00100C2F800020020E6
:1003300010BD704730B590F82040012C05D0022C3C
:1003400003D0416A41F480215DE00468002955D062
:100350002469A40754D04FF4D874056804EB011441
:100360002D5915F00405956005682D594ED0ED08FE
:10037000556005682C5904F00204D4604FF4DA7417
:10038000056804EB01142D5905F00F05156105688A
:100390002D59C5F30725956105682C59240C546126
:1003A0004FF4DC72046802EB0112A4581C7004685C
:1003B000A458240A5C700468A458240C9C70046837
:1003C000A258120EDA704FF4DE72046802EB0112CA
:1003D000A4581C710468A458240A5C710468A458C9
:1003E000240C9C710468A258120EDA71006881B165
:1003F000016941F020010161002030BDE468A8E7F7
:10040000416A41F400114162012030BD6D0D15605B
:10041000AFE7C16841F02001C160EDE72DE9F05F71
:100420000546006800244669D0F804908768D0F833
:100430000CB0D0F810A0D0F81880F10748D0F90718
:1004400014D001218160B80703D5284600F0F9F9DE
:100450000CE0780702D54FF4006407E0380702D5B6
:100460004FF4805402E0284600F0EAF9F80516D56A
:1004700029684FF480708860B80503D5284600F0DD
:10048000E2F90CE0780502D544F4005407E03805A1
:1004900002D544F4804402E0284600F0D3F9F80382
:1004A00016D529684FF480308860B80303D52846F4
:1004B00000F0CBF90CE0780302D544F4004407E0E7
:1004C000380302D544F4803402E0284600F0BCF939
:1004D000300707D55FEACB6004D52968102044F4C3
:1004E0000074C86070074FF0080707D55FEA0B700B
:1004F00004D52868C760284600F05AF9B00706D529
:100500002868C068800702D0284600F053F97006BA
:1005100007D55FEACA6004D52968102044F48064D6
:100520000861B00607D55FEA0A7004D5286807613C
:10053000284600F055F9F00606D5286800698007BE
:1005400002D0284600F04DF9B00308D55FEAC96033
:1005500005D5296810204860284600F043F9F003CB
:1005600007D55FEA097004D528684760284600F07F
:100570006DF9300446D55FEA497040D5F00504D5E1
:100580005FEAC87001D044F00104B00504D55FEA09
:10059000887001D544F00204700504D55FEA487004
:1005A00001D544F00404300529D518F0700F26D089
:1005B00008F07000402815D006DC102809D020284B
:1005C0000AD0302816D10AE050280ED0602811D168
:1005D0000EE044F008040DE044F010040AE044F09A
:1005E000200407E044F0400404E044F0800401E00B
:1005F00044F480742868816921F070018161296860
:1006000004204860002C05D0686A204368622846B0
:10061000FFF78FFEBDE8F09F70B5040003D094F89B
:10062000200010B104E0012070BD204600F082F8E7
:100630002068016841F00101016000F00BFA0546F5
:10064000052604E000F006FA401B0A2811D82068AD
:100650004068C007F6D02068016821F002010160FF
:1006600000F0F8F905460BE000F0F4F9401B0A2809
:1006700006D9606A40F40030606284F82060D2E7F6
:10068000206840688007EFD4207E01282068016838
:100690003DD021F080010160607E01282068016862
:1006A00038D021F040010160A07E01282068016857
:1006B00033D021F020010160E07E0128206801682C
:1006C0002ED041F010010160207F012820680168D0
:1006D00029D021F008010160607F012820680168AD
:1006E00024D021F004010160D4E902010843D4E9D7
:1006F0000412114308436168491E08432168C86118
:1007000000206062012084F82000002070BD41F0CC
:100710008001C0E741F04001C5E741F02001CAE790
:1007200021F01001CFE741F00801D4E741F00401C6
:10073000D9E7000010B586B0002100910191029127
:1007400003910068174988422AD11748C16941F0CE
:100750000071C161C16901F000710491816941F0CA
:10076000040181618069114C00F0040004904FF491
:10077000006000906946204600F07CF8A0140090CC
:1007800002200190032003906946204600F072F891
:1007900000221146142000F0C9F9142000F0B8F925
:1007A00006B010BD00640040001002400008014087
:1007B0007047000010B5084B084A0021FFF7BAFD4A
:1007C00008B172B6FEE705480068002803D0024968
:1007D0000120491E087010BD010000208C0000207F
:1007E000704770477047000070B5044690F82000CD
:1007F000012804D0606A40F40020606218E0022002
:1008000084F820002068016821F00101016000F0F7
:1008100021F905460EE000BF00F01CF9401B0A2834
:1008200008D9606A40F400306062052084F8200036
:10083000012070BD20684068C007EDD1606270BDC6
:1008400070477047704770477047704770470000A7
:1008500070B5044600F0FEF80546601C02D004485E
:100860000078044400F0F6F8401BA042FAD370BDB3
:100870000C0000202DE9F84FDFF8B891002409F1B1
:10088000040A0AF1040B23460F270BF1040EC9E0FA
:100890000125A5402A40AA427DD1674ED1F804C067
:1008A000ACEB0608B44532D014DCBCF1030F3AD0EF
:1008B00009DCBCF1000F2AD0BCF1010F1CD0BCF147
:1008C000020F31D11DE0BCF1110F17D0BCF1120F96
:1008D0002AD119E0B8F5881F19D006DCB8F5803F99
:1008E00015D0B8F5801F1FD111E0B8F5001F0ED04C
:1008F000B8F5041F18D10AE0CB6815E0CB681B1DC2
:1009000012E0CB6808330FE0CB680C330CE08B6847
:100910002BB1012B4FF0080303D0456104E0042301
:1009200002E0056100E00023FF2A01D8064601E04D
:1009300000F104064FEA840501D9A5F12005D6F897
:10094000008007FA05FC28EA0C0803FA05F548EAD6
:100950000508C6F800804D68ED0062D5374DAE69D8
:1009600046F00106AE61AD6924F0030605F001050D
:100970000095334D06EB050CDCF80850A607360F42
:1009800007FA06F825EA0805DFF8B880404503D1E4
:100990004FF0000817E044E0DFF8AC80404502D19A
:1009A0004FF001080FE0DFF8A480404502D14FF07E
:1009B000020808E0DFF89880404502D14FF00308B4
:1009C00001E04FF0040808FA06F848EA0508CCF8F8
:1009D00008804D68D9F80060ED034D4601D51643F7
:1009E00000E096432E604D68DAF80060AD0355468E
:1009F00001D5164300E096432E604D68DBF8006099
:100A0000ED025D4601D5164300E096432E604D6829
:100A1000DEF80060AD02754601D5164300E096434E
:100A20002E60641C0D682A46E5407FF431AFBDE8B6
:100A3000F88F000000040140000011100010024077
:100A40000000014000080140000C0140001001407E
:100A50000014014001488068704700000C0000202D
:100A60000248816802781144816070470C000020C0
:100A7000074810B5016841F010010160032000F043
:100A800075F8002000F006F800F024F8002010BDF2
:100A90000020024070B50D4D04464FF47A7128785D
:100AA000B1FBF0F00A490968B1FBF0F000F0ECFA94
:100AB00048B9102C07D200222146501E00F036F80B
:100AC00000206C6070BD012070BD00000C00002093
:100AD000180000200C4808B5816941F001018161CE
:100AE000816901F001010091C16941F08051C1614A
:100AF000C06900F0805000900448416821F0E06136
:100B000041F00071416008BD00100240000001404A
:100B1000002809DB00F01F020121914040098000FC
:100B200000F1E020C0F8001170470000F0B40E4B57
:100B30001B680C46C3F30223C3F10705042D00D93B
:100B40000425191D072901D2002300E0DB1E012620
:100B500006FA05F1491E214099409E40761E164036
:100B60003143F0BC00F0B8BC0CED00E0064900F0E9
:100B7000070208684FF6FF03184040EA0220034AC4
:100B800010430860704700000CED00E00000FA051B
:100B90002DE9F0470F46050061D0434E306800F064
:100BA0000700B84209D2306820F0070038433060AF
:100BB000306800F00700B84251D128683B4C8107EB
:100BC00012D5400703D5606840F4E0606060287883
:100BD000000703D5606840F4605060606068A968F1
:100BE00020F0F000084360602878C00728D06868CB
:100BF000012810D02168022810D0890700292EDA98
:100C0000616821F0030101436160FFF723FF804623
:100C100041F288390DE021688903EFE78901EDE7AA
:100C2000FFF718FFA0EB0801494502D90320BDE8F2
:100C3000F0876068696800F00C00B0EB810FEFD1BD
:100C4000306800F00700B8420BD9306820F0070088
:100C500038433060306800F00700B84201D001200E
:100C6000E5E72878400705D56068E96820F4E0608A
:100C7000084360602878000706D56068296920F479
:100C8000605040EAC100606000F038F86168084ACE
:100C9000C1F30311515CC84006490860064800686A
:100CA000FFF7F8FE0020C2E70020024000100240DB
:100CB0002C1B0008180000201000002004480549E3
:100CC00000684968044AC1F30221515CC84070477A
:100CD00018000020001002403C1B00080448054991
:100CE00000684968044AC1F3C221515CC84070479A
:100CF00018000020001002403C1B000812A185B023
:100D00000FC98DE80F0014A0144A006804905168C0
:100D1000134801F00C03042B10D0082B0ED1C1F3A3
:100D20008343C9031DF803000AD5516804AAC1F31F
:100D30004041515C0A4A5043B0FBF1F005B07047A6
:100D400008494843FAE700000203040506070809BA
:100D50000A0B0C0D0E0F10100102000000100240D3
:100D600000127A0000093D002DE9F84F040070D010
:100D70002078C04DC00749D06868C0F381000128C1
:100D800007D06868C0F38100022809D16868C003F1
:100D900006D52868800339D560680028E7D035E09B
:100DA0006068B0F5803F0BD010B1B0F5A02F11D026
:100DB000286820F480302860286820F4802002E031
:100DC000286840F480302860606890B1FFF742FEE8
:100DD00006460AE0286840F480202860F0E700BF5B
:100DE000FFF738FE801B642873D828688003F7D586
:100DF0000CE0FFF72FFE064605E000BFFFF72AFED6
:100E0000801B6428F0D828688003F7D420789A4E95
:100E100080074FF001094FF0000839D5686810F0DD
:100E20000C0F07D06868C0F38100022809D16868F8
:100E3000C00306D42868800714D52069012808D18A
:100E400010E02069B0B1C6F80090FFF703FE074636
:100E500005E00AE1FFF7FEFDC01B0228C4D82868A0
:100E60008007F7D52868616920F0F80040EAC100E2
:100E700028600DE0C6F80080FFF7ECFD074604E0AF
:100E8000FFF7E8FDC01B022823D828688007F7D4A5
:100E9000207800072CD57948A169D9B1C0F8009015
:100EA000FFF7D8FD074604E0FFF7D4FDC01B02287A
:100EB0000FD8686A8007F7D571484FF4FA51006877
:100EC000B0FBF1F0009000BF0098411E0091FAD2F3
:100ED0000EE080E0C0F80080FFF7BCFD074604E0AC
:100EE000FFF7B8FDC01B022875D8686A8007F7D4E1
:100EF0002078400760D5E8690027C00008D4E86979
:100F000040F08050E861E869012700F080500090CF
:100F10005C480168C90513D40168834641F48071B7
:100F20000160FFF797FD824606E000BFFFF792FDE4
:100F3000A0EB0A0064284ED8DBF80000C005F5D508
:100F4000E06801280AD008B1052813D0286A20F0EB
:100F500001002862286A20F0040002E0286A40F0BC
:100F600001002862E06841F2883B98B1FFF772FD0A
:100F700082460BE0286A40F004002862EEE700BFDA
:100F8000FFF768FDA0EB0A0159455AD8286A800787
:100F9000F6D50CE0FFF75EFD824605E0FFF75AFD4F
:100FA000A0EB0A0159454CD8286A8007F6D41FB136
:100FB000E86920F08050E861E06988B36968C1F3AE
:100FC0008101022944D00228C6F8608004D0FFF7CE
:100FD00041FD044638E034E0FFF73CFD074604E0FD
:100FE000FFF738FDC01B02282BD828688001F7D4F2
:100FF000206AB0F5803F05D16868A16820F4003010
:1010000008436860D4E908010843696821F4741151
:1010100008436860C6F86090FFF71CFD044606E0D0
:1010200025E000BFFFF716FD001B022809D828683D
:101030008001F7D51BE000BFFFF70CFD001B022865
:1010400002D90320BDE8F88F28688001F4D40EE0AF
:101050000128F7D06868226A00F48031914204D1F7
:10106000616A00F47010884201D00120EAE7002094
:10107000E8E70000001002400000424280044242C3
:10108000180000200070004010B5401EB0F1807FB5
:1010900001D3012010BD4FF0E02460610F216017E3
:1010A00000F01AFA0020A06107202061002010BD86
:1010B00070B5040004D094F83D00002510B106E09E
:1010C000012070BD84F83C50204600F023F8242015
:1010D00084F83D002068C16821F40051C1602046B9
:1010E00000F040F92068016921F490410161206815
:1010F000416921F02A0141612068C16841F4005131
:10110000C1602564202084F83D0084F83E00002062
:1011100070BD000030B585B00024009401940294A5
:10112000039400681449884224D11448816941F429
:1011300080418161816901F480410491816941F0BC
:101140000401816180690E4D00F0040004904FF4A9
:101150000070009002200190032003906946284609
:10116000FFF788FB2815CDE900046946284602945C
:10117000FFF780FB05B030BD003801400010024091
:10118000000801402DE9F843044690F83D001F4651
:1011900016460D4620284CD1C5B1BEB194F83C008E
:1011A000012846D0012084F83C004FF00008C4F824
:1011B0004080212084F83D00FFF74CFCA684814646
:1011C000E684A068B0F5805F03D004E00120BDE8AC
:1011D000F883206928B12E465FF0000584F83C8032
:1011E0000EE00026FAE78021204600F017F9A0B9AA
:1011F000AEB116F8010B21684860E08C401EE08417
:10120000E08C4B464FF0000200970028EBD14FF0E6
:101210004001204600F002F930B10320D7E735F84D
:10122000020BC0F30800E6E7202084F83D00002010
:10123000CDE70220CBE7FEE70E4810B50C49016070
:101240000921416000214FF400328160C0E903129E
:101250004FF440124261017641768176C176017782
:101260004177FFF7D9F9002801D072B6FEE710BD2B
:101270000064004020000020FEE7FEE77047704752
:10128000FFF7EEBB30B58FB028216846FEF761FF4F
:1012900014210AA8FEF75DFF01210804CDE9001022
:1012A0000024029402250491CDE907504FF4E01088
:1012B00009906846FFF758FD08B172B6FEE70F20A7
:1012C000CDE90A054FF48060CDE90C4002210AA85F
:1012D0000E94FFF75DFC002801D072B6FEE70FB058
:1012E00030BD704770B506464FF47A7588B00C462D
:1012F0002846FFF7ADFA20790DF10C0CE379A279BD
:1013000061798CE80F006078E278A1788DE80700B9
:10131000237832460A490B4800F0CAF80948FEF71C
:1013200023FF084982B22B46A1F18800FFF72AFF6C
:1013300008B00449BDE8704003A000F0A9B800005F
:10134000441B0008D0000020546865207265636962
:1013500076696E672064617461203A202573200AE3
:101360000D00000070B5044600680169E26821F4D0
:101370004051114301612169A06808436169084334
:101380002168CA6841F20C639A430243CA6020682C
:101390004169A26921F44071114341611E492068ED
:1013A000884202D1FFF79AFC01E0FFF787FC00EBCF
:1013B000C00101EB0012606864218000B2FBF0F311
:1013C000B3FBF1F36FF018067343B2FBF0F5B2FB19
:1013D000F0F605EB8305322303EB0515B5FBF1F5BC
:1013E000B6FBF1F605F0F00505EB0615B2FBF0F6DD
:1013F000B2FBF0F0B0FBF1F06FF01802504306EBD7
:10140000800003EB0010B0FBF1F0216800F00F004A
:101410002844886070BD0000003801402DE9F0418B
:10142000984617460E460446069D1DE0681C1BD0D4
:101430002DB1FFF70FFBA0EB0800A84214D92068DC
:10144000C16821F4D071C1602068416921F00101B7
:101450004161202084F83D0084F83E00002084F89B
:101460003C000320BDE8F0812068006836EA0000F7
:1014700004D00020B842D9D00020F3E70120F9E7DA
:101480000148FEF7CBBF000020000020FEE700006F
:101490000FB4054B10B503A9044A029800F03CF8BC
:1014A00010BC5DF814FB0000851900081C0000202A
:1014B0000FB4084B10B504A902AA039800F02CF849
:1014C000044602A9002000F058FA204610BC5DF83E
:1014D00014FB00007B1900080907090E002804DB33
:1014E00000F1E02080F80014704700F00F0000F1D8
:1014F000E02080F8141D704702E008C8121F08C1E0
:10150000002AFAD170477047002001E001C1121F84
:10151000002AFBD1704700002DE9FF4F8DB00F4628
:101520000546002606E025280BD0DDE90F1290477E
:101530006D1C761C28780028F5D111B03046BDE826
:10154000F08F0024A246A1460122EC4900E00443AA
:1015500015F8013F203B02FA03F00842F7D1287842
:101560002A2810D06FF02F022878A0F13001092925
:1015700014D80AEB8A0102EB410144F0020400EBAB
:10158000010A6D1CF0E701CF5FEA000A03D544F4BD
:101590000054CAF1000A44F002046D1C28782E2879
:1015A00017D115F8010F44F004042A280ED06FF06B
:1015B0002F022878A0F1300109290AD809EB890106
:1015C00002EB410100EB01096D1CF2E757F8049BA7
:1015D0006D1C28786C280FD006DC4C2817D06828A2
:1015E0000DD06A2814D104E0742810D07A280FD1C5
:1015F0000DE044F400140AE044F4801401E044F4E3
:1016000040146978814202D104F580146D1C6D1C70
:101610002A786E2A1FD00CDC632A31D004DC002A21
:101620008BD0582A11D1A3E0642A68D0692A0CD142
:1016300065E0732A2ED004DC6F2A73D0702A04D19F
:101640009BE0752A6FD0782A6ED01046DDE90F1224
:101650009047761C50E1C4F30250022806D00328BC
:1016600009D0042801CF09D0066045E101CFF11768
:10167000C0E9006140E101CF06803DE106703BE139
:1016800017F8040B8DF8000000208DF80100EB46E0
:10169000012003E057F804BB4FF0FF3061074FF023
:1016A000000102D40DE008F10101884649450FDA36
:1016B0008045F8DB1BF808100029F4D108E008F198
:1016C000010188468142FADB1BF808100029F6D197
:1016D000DDE90F23AAEB08008146214600F036F928
:1016E000304400EB080604E0DDE90F121BF8010BA3
:1016F0009047B8F10108F7D221464846F7E00A21A1
:10170000C4F302534FF0000B0891022B04D001CF19
:10171000C117032B09D00AE0FF1D27F00707F7E8E0
:10172000020108E032E01FE020E000B2C117042B04
:1017300001D140B2C117031E71F1000307DA4FF067
:10174000000CD0EB0C006CEB01012D2302E0230513
:1017500004D52B238DF82430012303E0E30701D0C7
:101760002023F7E7984658E00A2110E010210EE008
:1017700010204FF0000B08900CE010214FF0000BF0
:1017800044F004044FF00809089103E008214FF0E9
:10179000000B0891C4F30253022B04D001CF0021A7
:1017A000032B06D006E0FF1D27F00707F7E802012C
:1017B00003E080B2042B00D1C0B24FF00008230731
:1017C0002BD5702A07D0DDF820C08CF0100C5CEA15
:1017D0000B0C05D00EE040238DF82430012308E0E7
:1017E00050EA010306D030238DF824308DF82520EF
:1017F00002239846DDF820C08CF0080C5CEA0B0C44
:101800000BD150EA010301D1630706D530238DF8CF
:1018100024304FF00108A9F10109582A04D038A258
:101820000B9208AA0A920BE03AA2F9E75B46089AE3
:10183000FEF7A1FC0B9B9B5C0A9A521E0A92137046
:1018400050EA0102F2D10A98ADEB000000F1200B42
:10185000600702D524F4803401E04FF00109D94536
:1018600002DDA9EB0B0000E0002000EB0B0141447E
:101870000890AAEB010AE00306D4DDE90F23214614
:10188000504600F063F806444FF0000908E009A94B
:1018900011F80900DDE90F12904709F10109761CE2
:1018A000C145F4DBE0030CD5DDE90F2321465046AA
:1018B00000F04CF8064404E0DDE90F1230209047B8
:1018C000761C0899481E08900029F5DC08E00A9863
:1018D0000A990078491C0A91DDE90F129047761C9D
:1018E000BBF10001ABF1010BF1DC21465046DDE913
:1018F0000F2300F019F806446D1C1BE609280100AF
:101900003031323334353637383961626364656675
:101910000000000030313233343536373839414237
:1019200043444546000000002DE9F04104460025EF
:101930001E461746880404D405E039462020B047E7
:101940006D1C641EF9D52846BDE8F0812DE9F041F3
:10195000044600251E469046C80301D5302700E006
:101960002027880404D505E041463846B0476D1C61
:10197000641EF9D52846BDE8F0810A68531C0B6047
:101980001070704708490968C90706D006498039B0
:101990000968CA074FF0604101D1704700BF0A686B
:1019A000002AFBD008707047800E00E008B5FFF7F2
:1019B0005FF8FFF767FC5548816941F020018161BC
:1019C000816901F020010091816941F00401816188
:1019D000816901F004010091816941F00801816190
:1019E000806900F008000090FFF726FC494848494C
:1019F000002401604FF4E131C0E901140C21C460FE
:101A0000C0E904418461C461FFF752FB08B172B6BA
:101A1000FEE74048012160300A220162C0E9044229
:101A20004FF41052C0E9002441F6FF72C0E90224CD
:101A3000C0E9064144628838FEF7D6FE35480221E7
:101A40002838FEF7ECFB33496031A1F18800FEF73E
:101A5000F9FB304802212838FEF7E1FB4FF490747F
:101A6000E71C4FF47A7108B172B6FEE7294E2A4D91
:101A7000443640F221194FF4917B4FF4927A884614
:101A8000287888B34046FEF7E3FE31683846A1F275
:101A90002312814221D00EDC15292BD02046814211
:101AA0001BD0A1F58071213911D00129E8D11A4943
:101AB0005846491C0EE0012A12D0022A15D0B2F570
:101AC000377FDDD1144940F2FF30491C02E0124952
:101AD0004846491CFFF706FCD2E70F49491CF9E7C5
:101AE0000D495046491CF5E708E00B4940F2251026
:101AF000491CEFE70849491C1520EBE707A0FFF751
:101B0000C7FC4046FEF7A4FEBAE700000010024002
:101B10000038014048000020000000204E4F5F4385
:101B2000414E5F444154410D0A0000000000000096
:101B3000000000000102030406070809000000007D
:101B40000102030449443A2D3E2030782530582CB8
:101B5000446174615B305D3A203078253032582C16
:101B600020446174615B315D3A2030782530325811
:101B70002C20446174615B325D3A2030782530322C
:101B8000582C20446174615B335D3A2030782530F5
:101B900032582C20446174615B345D3A20307825E2
:101BA0003032582C2C20446174615B355D3A203012
:101BB00078253032582C2C20446174615B365D3AB4
:101BC000203078253032582C20446174615B375DB9
:101BD0003A203078253032580D0A0000FC1B0008EE
:101BE0000000002020000000F81400081C1C000861
:101BF000200000200005000008150008000000007B
:101C000000000000000000000100000010000000C3
:0C1C1000000000000024F40000000000B0
:04000005080000ED02
:00000001FF
